:100000000C9462000C948A000C948A000C948A0070
:100010000C948A000C948A000C948A000C948A0038
:100020000C948A000C948A000C948A000C948A0028
:100030000C948A000C948A000C948A000C948A0018
:100040000C949A030C948A000C948A000C948A00F5
:100050000C948A000C948A000C948A000C948A00F8
:100060000C948A000C948A000000000024002700F1
:100070002A0000000000250028002B0000000000DE
:1000800023002600290004040404040404040202DA
:100090000202020203030303030301020408102007
:1000A0004080010204081020010204081020000012
:1000B0000008000201000003040700000000000027
:1000C0000000450511241FBECFEFD8E0DEBFCDBF35
:1000D00011E0A0E0B1E0E4E8FBE002C005900D9281
:1000E000AC33B107D9F721E0ACE3B1E001C01D9218
:1000F000A336B207E1F710E0C2E6D0E004C02197D2
:10010000FE010E94BA05C136D107C9F70E94E40377
:100110000C94C0050C940000833081F028F48130E9
:1001200099F08230A9F008958730A9F08830C9F09D
:100130008430B1F4809180008F7D03C08091800075
:100140008F7780938000089584B58F7784BD08955C
:1001500084B58F7DFBCF8091B0008F778093B00006
:1001600008958091B0008F7DF9CFCF93DF93E6EBB8
:10017000F0E08491E2EAF0E0D491EEE8F0E0C4919E
:10018000CC23A1F081110E948C00EC2FF0E0EE0F47
:10019000FF1FE458FF4FA591B491EC91ED2381E04E
:1001A00090E009F480E0DF91CF91089580E090E045
:1001B000FACF1F93CF93DF93282F30E0F901E25558
:1001C000FF4F8491F901E656FF4FD491F901EA57A8
:1001D000FF4FC491CC23A9F0162F81110E948C00EF
:1001E000EC2FF0E0EE0FFF1FEE58FF4FA591B491FA
:1001F0008FB7F894EC91111108C0D095DE23DC93F1
:100200008FBFDF91CF911F910895DE2BF8CFCF9351
:10021000DF9390E0FC01E656FF4F24918A579F4FF1
:10022000FC0184918823D1F090E0880F991FFC0194
:10023000E859FF4FA591B491FC01EE58FF4FC591CD
:10024000D49161110EC09FB7F8948C91E22FE09584
:100250008E238C932881E223E8839FBFDF91CF9187
:1002600008958FB7F894EC91E22BEC938FBFF6CF03
:100270003FB7F8948091470190914801A0914901BE
:10028000B0914A0126B5A89B05C02F3F19F00196F1
:10029000A11DB11D3FBFBA2FA92F982F8827BC01E0
:1002A000CD01620F711D811D911D42E0660F771F08
:1002B000881F991F4A95D1F708958F929F92AF9208
:1002C000BF92CF92DF92EF92FF924B015C010E94AE
:1002D00038016B017C010E9438016C197D098E097F
:1002E0009F09683E734081059105A8F321E0821AB9
:1002F0009108A108B10888EEC80E83E0D81EE11C61
:10030000F11C81149104A104B10429F7FF90EF902E
:10031000DF90CF90BF90AF909F908F900895AF9255
:10032000BF92CF92DF92EF92FF920F931F93CF93E2
:10033000DF936C017B018B01040F151FEB015E0144
:10034000AE18BF08C017D10759F06991D601ED91D9
:10035000FC910190F081E02DC6010995892B79F778
:10036000C501DF91CF911F910F91FF90EF90DF902A
:10037000CF90BF90AF900895089590E080E00895E9
:100380008F929F92AF92BF920F931F93CF93DF9361
:10039000CDB7DEB7A1970FB6F894DEBF0FBECDBFC5
:1003A00019A2423008F44AE08E010F5D1F4F842EDF
:1003B000912CB12CA12CA50194010E948205E62F5D
:1003C000B901CA01EA3044F5E05DD801EE938D0130
:1003D000232B242B252B79F790E080E0109769F0F0
:1003E000FD0101900020E9F73197AF014A1B5B0B3B
:1003F000BD018BE491E00E948F01A1960FB6F894A5
:10040000DEBF0FBECDBFDF91CF911F910F91BF9087
:10041000AF909F908F900895E95CD7CFFC01019039
:100420000020E9F73197AF01481B590BBC018BE461
:1004300091E00C948F01CF93DF93EC0160E08E810B
:100440000E94D90061E08E810E94D90060E08E8117
:100450000E94D9008BE891E00197F1F7DF91CF91ED
:100460000895CF92DF92EF92FF920F931F93CF9355
:10047000DF936C017C0187E0E80EF11CD0E0C0E066
:10048000062F10E0B8010C2E02C0759567950A94EE
:10049000E2F76170F70181917F010E94D9002196F6
:1004A000C430D10579F7C601DF91CF911F910F912B
:1004B000FF90EF90DF90CF900C941B02CF92DF92D1
:1004C000EF92FF920F931F93CF93DF93EC01F62EE1
:1004D000642F8C810E94D9008D818F3F19F060E0DC
:1004E0000E94D9000F2D10E08F8584FF25C06E017A
:1004F00087E0C80ED11CF12CE12CB8010E2C02C0F3
:10050000759567950A94E2F76170F60181916F0124
:100510000E94D900FFEFEF1AFF0A88E0E816F10405
:1005200061F7CE01DF91CF911F910F91FF90EF9076
:10053000DF90CF900C941B02B80184E0759567950D
:100540008A95E1F7CE010E9431026F2DCE01DF9135
:10055000CF911F910F91FF90EF90DF90CF900C946F
:10056000310240E0682F8BE491E00C945E02CF935F
:10057000DF93823029F490915A01986090935A0148
:1005800080935E0110925F0180E48093600180E1BE
:100590008093610180E58093620161E080914F0169
:1005A0000E940701809150018F3F19F061E00E9485
:1005B000070161E0809151010E940701CBE4D1E085
:1005C0009E012B54314080915A0184FD0BC084E080
:1005D00090E021962817390744F461E08E810E944B
:1005E0000701EECF88E090E0F4CF8BE39DE0019728
:1005F000F1F760E080914F010E94D90060E08091A6
:1006000051010E94D900809150018F3F19F060E0A4
:100610000E94D90080915A0184FD39C063E08BE4C7
:1006200091E00E943102CBE4D6E4CE010197F1F7CC
:1006300063E08BE491E00E9431022197F1F763E0DF
:100640008BE491E00E94310283E592E00197F1F79B
:1006500062E08BE491E00E94310280915A01806255
:100660000E94B10284E080935B018CE00E94B102A1
:1006700081E00E94B1028BE39FE10197F1F782E0F4
:1006800080935C0186E0DF91CF910C94B10280628F
:100690000E94B1028BE496E40197F1F780915A0130
:1006A00080620E94B10283E592E00197F1F78091A8
:1006B0005A0180620E94B102D0CF90915E018917E9
:1006C00010F08FEF890FE82FF0E0E55BFE4F848993
:1006D00080680C94B10241E00E945E0281E090E0EB
:1006E0000895CF92DF92EF92FF926C01990FEE087E
:1006F000FF08F7FE16C041E06DE28BE491E00E9436
:100700005E0266277727CB016C197D098E099F0948
:100710004AE00E94C0010196FF90EF90DF90CF90D9
:1007200008954AE0C701B601FF90EF90DF90CF90A7
:100730000C94C0011F920F920FB60F9211242F93A9
:100740003F938F939F93AF93BF9380914301909179
:100750004401A0914501B09146013091420123E04E
:10076000230F2D3758F50196A11DB11D209342018D
:100770008093430190934401A0934501B0934601B7
:100780008091470190914801A0914901B0914A019F
:100790000196A11DB11D8093470190934801A0933C
:1007A0004901B0934A01BF91AF919F918F913F91C1
:1007B0002F910F900FBE0F901F90189526E8230FD2
:1007C0000296A11DB11DD2CF789484B5826084BDFC
:1007D00084B5816084BD85B5826085BD85B5816045
:1007E00085BD80916E00816080936E0010928100C3
:1007F000809181008260809381008091810081607E
:10080000809381008091800081608093800080913E
:10081000B10084608093B1008091B00081608093CA
:10082000B00080917A00846080937A0080917A0091
:10083000826080937A0080917A00816080937A0050
:1008400080917A00806880937A001092C10060E005
:1008500088E00E94070160E08EE00E94070161E0ED
:100860008BE00E94070182E00E94B70280E00E94B4
:100870005D038CE091E00E940E0281E00E945D0326
:1008800060ED77E080E090E00E945D0181E00E94F1
:10089000B1028BE39FE10197F1F744244A9483E08E
:1008A000582E612C712C99EB292E90E0392E20E0E6
:1008B000822E20E0922E8FB7F894C0904301D09002
:1008C0004401E0904501F09046018FBF10E0D0E078
:1008D000C0E00E94B500019709F411E00E94B50044
:1008E000892B21F4112311F0219610E02FB7F894F1
:1008F0008091430190914401A0914501B09146013E
:100900002FBF8C199D09AE09BF09893E9340A105EF
:10091000B105F8F28EE18C9F50018D9FB00C11242F
:10092000E0E4E0937C0080917A00806480937A0018
:1009300080917A0086FDFCCF0091780010917900BB
:1009400010934101009340012DEC30E0D8010E944A
:10095000B305A30192010E94630569017A01F2E3E4
:10096000CF0ED11CE11CF11CE601D0923F01C092D8
:100970003E0124E630E0D8010E94B305A3019201B4
:100980000E94630530933D0120933C01121613062B
:1009900034F461E08BE00E940701209781F560E06C
:1009A0008BE00E94D90080E00E945D038DE191E020
:1009B0000E940E0280913C0190913D010E947103C2
:1009C0008AE291E00E940E0281E00E945D038EE2C5
:1009D00091E00E940E02C5010E94710387E391E03D
:1009E0000E940E026AE070E080E090E00E945D01EB
:1009F0008114910409F45FCF0E9400005CCFCF3FC7
:100A0000D10511F461E0CCCFF1018491833019F16B
:100A100040F48130B1F08230C9F0C038D10594F78C
:100A2000BECF873011F1883041F18430B1F7809129
:100A30008000806280938000D0928B00C0928A00F8
:100A4000B2CF84B5806884BDC7BCADCF84B58062A9
:100A500084BDC8BCA8CF809180008068809380004E
:100A6000D0928900C09288009ECF8091B0008068AB
:100A70008093B000C092B30096CF8091B0008062A6
:100A80008093B000C092B4008ECFEBE4F1E013820B
:100A9000128284E091E09183808382E084838FEFEF
:100AA000858383E0868384E0878385E0808786E092
:100AB000818787E0828713861486158616861786B7
:100AC00081E00C94B702052E97FB1EF400940E945F
:100AD0007A0557FD07D00E94820507FC03D04EF42B
:100AE0000C947A0550954095309521953F4F4F4F86
:100AF0005F4F089590958095709561957F4F8F4FCA
:100B00009F4F0895A1E21A2EAA1BBB1BFD010DC029
:100B1000AA1FBB1FEE1FFF1FA217B307E407F507AD
:100B200020F0A21BB30BE40BF50B661F771F881F89
:100B3000991F1A9469F760957095809590959B011F
:100B4000AC01BD01CF010895A29FB001B39FC001C8
:100B5000A39F700D811D1124911DB29F700D811DE9
:100B60001124911D08950E94A405B7FF0895821BCA
:100B7000930B0895EE0FFF1F0590F491E02D09945B
:040B8000F894FFCF17
:100B8400000000006B038F01BD01BC0157454C43BD
:100B94004F4D4520546F20474954414D00447574CE
:100BA40079204379636C653A2000252020002020B9
:0C0BB4002052504D3A200020202000006C
:00000001FF
