:03000000020AE20F
:0C0AE200787FE4F6D8FD75812D020978BC
:100A3500455320545241494E494E4700434C41537A
:100A45005320535452454E4754480020535455445F
:100A5500454E545300474954414D20554E4956453E
:100A650052534954592C2042414E474C4F52450050
:1009780078087C007D007BFF7A0A795A7E007F1B0D
:100988001208D07527007528147F38120AC07F0115
:10099800120AC07F0C120AC07F80120AC07F06129A
:1009A8000AC07BFF7A0A7935120A757FC0120AC01D
:1009B800E4F523F52474082524F8E6FF600D120AEF
:1009C800D10524E52470EE052380EAE4F525F52613
:1009D8007F1C120AC00526E52670020525C3941E51
:1009E800E525940040EA7F01120AC07F80120AC000
:1009F8007BFF7A0A7941120A757FC0120AC0AE27B6
:100A0800AF287C007D0A120923EF2430FF120AD197
:100A1800AE27AF287C007D0A120923ED2430FF128F
:0D0A28000AD17BFF7A0A7950120A7580B955
:100AA000E4FDFCC3ED9FEC9E5015E4FBFA0BBB008C
:0F0AB000010ABA04F8BBFBF50DBD00010C80E490
:010ABF002214
:100AC000D2A2C2A0C2A18F90C2A27F147E00020A4D
:010AD000A085
:100AD100D2A2D2A0C2A18F90C2A27F147E00020A2C
:010AE100A074
:060A75008B298A2A892B5F
:100A7B00E4F52CF52DAB29AA2AA92B852D82852CE3
:100A8B00831208F6FF600D120AD1052DE52D70E5D6
:040A9B00052C80E1C5
:010A9F002234
:10080000E709F608DFFA8046E709F208DFFA803EDA
:1008100088828C83E709F0A3DFFA8032E309F608C7
:10082000DFFA8078E309F208DFFA807088828C832F
:10083000E309F0A3DFFA806489828A83E0A3F608E3
:10084000DFFA805889828A83E0A3F208DFFA804CBD
:1008500080D280FA80C680D4806980F28033801094
:1008600080A680EA809A80A880DA80E280CA8033FD
:1008700089828A83ECFAE493A3C8C582C8CCC58375
:10088000CCF0A3C8C582C8CCC583CCDFE9DEE78045
:100890000D89828A83E493A3F608DFF9ECFAA9F0C4
:1008A000EDFB2289828A83ECFAE0A3C8C582C8CC1A
:1008B000C583CCF0A3C8C582C8CCC583CCDFEADE33
:1008C000E880DB89828A83E493A3F208DFF980CC95
:1008D00088F0EF60010E4E60C388F0ED2402B4048E
:1008E0000050B9F582EB2402B4040050AF23234535
:0608F00082239008507302
:1008F600BB010CE58229F582E5833AF583E02250B7
:1009060006E92582F8E622BBFE06E92582F8E22200
:0D091600E58229F582E5833AF583E493221A
:10092300BC000BBE0029EF8DF084FFADF022E4CCB8
:10093300F875F008EF2FFFEE33FEEC33FCEE9DEC81
:10094300984005FCEE9DFE0FD5F0E9E4CEFD22EDC7
:10095300F8F5F0EE8420D21CFEADF075F008EF2F11
:10096300FFED33FD4007985006D5F0F222C398FD02
:050973000FD5F0EA229F
:00000001FF
