:030000000217D70D
:0C17D700787FE4F6D8FD75815102163BC6
:10121000566F6C746167653A2000324C4544732008
:101220004F4E00314C4544204F4E004C45447320F6
:101230004F46460025312E34665600000000003C23
:10124000A0902E3D20902E3D70D8453DA0902E3D83
:10125000C8B4393DF0D8453E0C985F3E20AA653EA3
:1012600034BC6A3E48CE703E5CE0763E70F27C3E16
:101270008282413E8C8B443E9694463EA09D493EE0
:10128000AAA64C3EB4AF4F3EBEB8523EC8CE703E4A
:10129000D2D7733EDCE0763EE6E9793EF0F27C3E62
:1012A000FAFB7F3F0282413F0786C23F0C8B443FDF
:1012B000118FC53F1694463F1B98C83F20A3D73FC8
:1012C00025A8583F2AACDA3F2FB15B3F34B5DD3F4C
:1012D00039BA5E3F3EBEE03F43C3613F48C7E33F8C
:1012E0004DCC643F52D0E53F57D5673F5CD9E83FCE
:1012F00061E4F73F66E9793F6BEDFA3F70F27C3FBE
:1013000075F6FD3F7AFB7F3F8000003F8282413FC0
:101310008504813F8786C23F8A09033F8C8B443F07
:101320008F0D843F91930C3F94154D3F96978D3FC1
:101330009919CE3F9B9C0F3F9E1E4F3FA0A0903F10
:10134000A322D13FA5A5123FA827523FAAA9933FA8
:10135000AD2BD43FAFAE143FB2339C3FB4B5DD3FAD
:10136000B7381D3FB9BA5E3FBC3C9F3FBEBEE03FB1
:10137000C141203FC3C3613FC645A23FC8C7E33F49
:10138000CB4A233FCDCC643FD051EC3FD2D42C3F4D
:10139000D5566D3FD7D8AE3FDA5AEE3FDCDD2F3F52
:1013A000DF5F703FE1E1B13FE463F13FE6E6323FEA
:1013B000E968733FEBEAB33FEE6CF43FF0F27C3F39
:1013C000F374BC3FF5F6FD3FF8793E3FFAFB7F3FF3
:1013D000FD7DBF40000000400141204002824140AD
:1013E00003C36140050481400645A2400786C24010
:1013F00008C986400A0AA6400B4BC7400C8CE74040
:101400000DCE07400F0F2840105048401191684002
:1014100012D289401413A9401554CA401695EA40C7
:1014200017D70A401919CE401A5AEE401B9C0F409C
:101430001CDD2F401E1E4F401F5F704020A09040BB
:1014400021E1B1402322D1402463F14025A512407F
:1014500026E632402828F640296A16402AAB364054
:101460002BEC57402D2D77402E6E98402FAFB84073
:1014700030F0D8403231F9403373194034B4394038
:1014800035F55A4037367A4038793E4039BA5E40B1
:101490003AFB7F403C3C9F403D7DBF403EBEE0402C
:1014A00040000040414120404282414043C36140EE
:1014B000450481404645A2404786C24048C986400F
:1014C0004A0AA6404B4BC7404C8CE7404DCE0740E4
:1014D0004F0F2840505048405191684052D28940A7
:1014E0005413A9405554CA405695EA4057D70A406C
:1014F0005919CE405A5AEE405B9C0F405CDD2F409C
:101500005E1E4F405F5F704060A0904061E1B1405F
:101510006322D1406463F14065A5124066E6324023
:101520006828F640696A16406AAB36406BEC574053
:101530006D2D77406E6E98406FAFB84070F0D84018
:101540007231F9407373194074B4394075F55A40DB
:1015500077367A4078793E4079BA5E407AFB7F40B0
:101560007C3C9F407D7DBF407EBEE04080000040CF
:1015700080A090408141204081E1B1408282414081
:101580008322D14083C361408464C34085055340B6
:1015900085A5E3408646744086E7044087879440EB
:1015A0008828244088C8B440896944408A09D540C5
:1015B0008AAA65408B4AF5408BEB85408C8CE740CE
:1015C0008D2D77408DCE07408E6E98408F0F28402E
:1015D0008FAFB8409050484090F0D840919168400B
:1015E0009231F94092D289409373194094147B4010
:1015F00094B50B4095559B4095F62B409696BC4074
:1016000097374C4097D7DC4098786C409918FC404D
:1016100099B98C409A5A1D409AFAAD409B9B3D4027
:101620009C3C9F409CDD2F409D7DBF409E1E4F40B7
:0B1630009EBEE0409F5F7040A00000E5
:10163B001216DF7BFF7A12791012175A1217A27546
:10164B00F004EFA4243BF582E5F03412F583120D80
:10165B005B8F258E248D238C227FC01217B7AF256D
:10166B00AE24AD23AC2212177FC280C281E4FFFEF1
:10167B007D407C40AB25AA24A923A8221208006038
:10168B00134011D280D2817FC81217B77BFF7A1219
:10169B00791A8033E4FFFEFD7C40AB25AA24A923F5
:1016AB00A8221208004011D280C2817FC81217B73E
:1016BB007BFF7A127923800FC280C2817FC81217F9
:1016CB00B77BFF7A12792B12175A7F057E00121700
:0416DB001302164799
:1016DF007F381217B712170F7F0C1217B712170F89
:1016EF007F061217B712170F7F011217B712170FB6
:0C16FF007F801217B77F017E00021713D6
:1017B7008FA0C2B012170BC2B27F017E00021713AF
:1017C7008FA0D2B012170BC2B27F017E000217138F
:10175A008B368A378938AB36AA37A938120D036017
:10176A00130538E5387002053714F9120D03FF1214
:05177A0017C780E22208
:10177F007539FF753A12753B348F3F8E3E8D3D8C18
:10178F003C7B007A007926120DFD7B007A007926CA
:03179F0002175AD4
:1017A200D2B3D2B512170FC2B3C2B520B6FDD2B4AE
:0417B200AF90C2B47E
:0117B6002210
:08170B00C2B1D2B27F017E00E1
:10171300E4FDFCC3ED9FEC9E5015E4FBFA0BBB000C
:0F172300010ABA04F8BBFBF50DBD00010C80E410
:011732002294
:1008000074F8CC6480CCC86480C8F58204604FC39F
:10081000EB9FF5F0EA9E42F0E99D42F0E89C45F03E
:10082000603C501DE5825FFFE582D313CB5BCBF4C8
:100830002B5582FB50280ABA002409B900200880F1
:100840001DE5825BFBE582D313CF5FCFF4C3132F8B
:100850005582FF50090EBE00050DBD00010CC3EB13
:100860009FF5F0EA9E42F0E99D42F0E89C45F06079
:0908700007CC4820E701B3EC229B
:100DA100E54D2439F8E6054D2278363007027839C9
:100DB100E475F001120D6B020D032000EB7F2ED2C2
:100DC100008018EF540F2490D43440D4FF30040B2A
:100DD100EF24BFB41A0050032461FFE54E600215F1
:100DE1004E0551E5517002055030070D7836E47516
:100DF100F001120D6BEF020D490217337403D20794
:100E01008003E4C207F54D8B368A378938E4F54E05
:100E1100F550F551E54E60077F20120DDC80F57528
:100E21004FFFC201C200C202C203C205C206C2080C
:100E3100120DAAFF700D3007057F00120DEDAF51A5
:100E4100AE5022B4255FC2D5C204120DAAFF24D030
:100E5100B40A00501A75F00A784E30D50508B6FF6D
:100E61000106C6A426F620D5047002D20380D92437
:100E7100CFB41A00EF5004C2E5D2040210DAD20155
:100E810080C6D20080C0D20280BCD2D580BAD20541
:100E910080B47F20120DDC2002077401B54E0040A2
:100EA100F1120DA1FF120DDC020E15D208D206803F
:100EB10095120DA1FB120DA1FA120DA1F94A4B7069
:100EC1000679D17A117BFF20022EE54E602A7E0041
:100ED1008E82758300120D1C60060EEE654F70F058
:100EE100C2D5EBC0E0EAC0E0E9C0E0EE12113AD0B1
:100EF100E0F9D0E0FAD0E0FB120D03FF60AAEBC0ED
:100F0100E0EAC0E0E9C0E0120DDCD0E02401F9D054
:100F1100E03400FAD0E0FBE54F0460DCD54FD98026
:100F210087D20280A212111D60F7E54F70010412F1
:100F31000879A94F600DE54F600914F54F1211C4EE
:100F4100EF60F3EA30E702F404C3995077EAF4253D
:100F51004F0430E701E404F54F800D12111D60C10B
:100F6100EA054F254F120879EA784CF630E701E49B
:100F7100254F04D54F042005011412113AE4C0E0B5
:100F81001211C4784CE6601320E70714F6120DC461
:100F9100802204F6D0E014C0E07F00120DC4E54FBA
:100FA1006007120DBB154F800B300503120DBBD02E
:100FB100E0020E15D0E00480C512111D60A0E54FBE
:100FC10004120879784CEAF6E54F20050260010425
:050FD100240412113A96
:100FD60074FF04C0E01211C4120DC4E54F200502CF
:100FE6006003120DBBD0E0B54FE87F45120DCE78F9
:100FF6004CE67F2B30E7047F2DF404C0E0120DDCB5
:10100600D0E075F00A84C0F0120DC5D0E0120DC50F
:10101600020E15791080027908C206C2088008D22D
:10102600D5790A8004790AC2D5E54F047002F54FD6
:10103600E4FAFDFEFF120DA1FC7B08200113120D40
:10104600A1FD7B1030000A120DA1FE120DA1FF7B3F
:1010560020EC3382D592D55013C3E43000069FFFAF
:10106600E49EFEE42001039DFDE49CFCE4CBF8C273
:1010760001EC700CCFCECDCCE824F8F870F38017D5
:10108600C3EF33FFEE33FEED33FDEC33FCEB33FB06
:10109600994002FB0FD8E9EB300105F8D0E0C448CF
:1010A600B201C0E00AEC4D4E4F78207B0070C2EAD8
:1010B600B54F0040BCC0E012113CD0F0D0E020019A
:1010C60004C4C0E0C4B201C0F0120DC5D0F0D5F022
:1010D600EB020E15120D7B0EB2531019580E834CEF
:1010E6000E7F42101D4F1025441025490E984310BF
:1010F6002B550F5C460FBA450F264711F1500E8748
:101106002D0E8B2E0EAE2B0E8F230EAC2011DA2A4F
:101116000E474800000EA6E54FB4FF03754F0612B2
:101126000DA1FC120DA1FD120DA1FE120DA1FF785D
:10113600450208A8790AA2D5200314300509B9107A
:10114600020404B9080104A2D520060250010420B5
:1011560002689202B54E005034C0E07F2030031979
:101166007F30A20272067205500F121193C202C29C
:1011760006C205C2087F30800F300503E9C0E012C1
:101186000DDC300503D0E0F9D0E0B54ECC300517C4
:101196007F30B9100C120DDC7F583004077F788041
:1011A60003B90803120DDC3002057F2D020DDC7F2A
:1011B600202008F87F2B2006F322920280CF7F00A2
:1011C600B4070050052445F8E6FF22286E756C6CBE
:1011D6002900D201120DA13001F8C201784E30D596
:1011E6000108F6020E472D50434958120DA124035B
:1011F600B405004001E49011EC93120DCD743A123F
:0A1206000DCDD203754E040210193D
:10087900F920E72824F950037907E4F42402FB1846
:10088900DBFDE624FB5014E9600DE4F618E604F6F6
:0F089900B40A08E4F6D9F57401F60A22C2D52292
:1008A800ED33EC3392D5FA602AB4FF33EDC2E77B1F
:1008B800FF60067A0879CDE4227A0879D620D50433
:1008C8007A0879D1224E614E002B494E46002D49B7
:1008D8004E4600E47A08F608DAFC7B00740722E842
:1008E800C0E0ECC0E0EDC0E0EEC0E0EFC0E0EA75CB
:1008F800F010A4CAABF075F04DA42BFBE435F0FC66
:10090800EA2410FAEB34C5FBEC34D9FCEDC2E7FF5E
:1009180075F056A4F42411C5F0F434C58FF0A42A58
:10092800E5F03BE43CF620E714120C79D0E0FFD068
:10093800E0FED0E0FDD0E0FC120BAC8014F4041211
:100948000C79D0E0FFD0E0FED0E0FDD0E0FC120A48
:10095800A3D0E0F8E6FAEDD2E7CD33EC332482FBFE
:10096800E4C3CF33CFCE33CECD33CD33DBF37B07E8
:1009780075F00A846004F6081B0AE5F0F6088FF0A3
:10098800740AA4FFACF08EF0740AA42CFEACF050EC
:10099800010C8DF0740AA42CFDE435F0F608DBDEBA
:0309A800740722AF
:1009AB00020CEEE86480F8E933E83360110460F080
:1009BB00ED33EC337009E8FCE9FDEAFEEBFF2204B2
:1009CB0060DED3EB9FEA9EE99DE8C2E78CF0C2F7AD
:1009DB0095F0400CE8CCF8E9CDF9EACEFAEBCFFB79
:1009EB00120CB985D0F05804700320D5B3E804700D
:1009FB00075002B2D5020CF892D5EC0460F7E4CCA8
:100A0B00C0E0C398F8603B94186008400DD0E0FB41
:100A1B00020CD0E4FBFAC9FC8028E830E406E4C9F8
:100A2B00FBE4CAFCE830E305E4C9CACBFCE8540795
:100A3B006010F8C3E913F9EA13FAEB13FBEC13FCA0
:100A4B00D8F130F52FC3E49CFCEF9BFFEE9AFEED43
:100A5B0099FDD0E0FBEF4E4D4C701222DB03020CE4
:100A6B00F5EC2CFCEF33FFEE33FEED33FDED30E711
:100A7B00EB020CD0EF2BFFEE3AFEED39FDD0E0FB95
:100A8B0050130BBB0003020CF8ED13FDEE13FEEF3E
:080A9B0013FFEC13FC020CD068
:100AA300EC4D6011E8497017ED33EC3304600DE44D
:100AB300FCFFFEFD22E933E8330470F8020CEE126A
:100AC3000CB958046009E4CC24815006285009026B
:100AD3000CF8284003020CF5C0E0EB4A7044B980DF
:100AE30006D0E0FB020CE4EF4E701CBD8008EBFF68
:100AF300EAFEE9FD80EBE98DF0A4FEE5F0020B8C44
:100B0300E9CDF9EAFEEBFFEF89F0A4FCE5F0CE892D
:100B1300F0A42EFFE435F0CD89F0A42DFEE435F0EA
:100B23008067EF4E7005BD80D780C3EF8BF0A4AC18
:100B3300F0EE8BF0A42CFCE435F0F8EF8AF0A42C53
:100B4300E5F038FCE433CB8DF0A42CFCE5F03BF866
:100B5300EE8AF0A42CFCE5F038F8E433CF89F0A456
:100B63002CFCE5F038CF3400CE89F0A42FFFE5F05C
:100B73003EFEE433C98DF0A42EFEE5F039CD8AF0B4
:100B8300A42FFFE5F03EFEE43DFD33D0E0FB50072C
:100B93000BBB000F020CF8EC2CFCEF33FFEE33FE23
:060BA300ED33FD020CD051
:100BA900020CF8EC5D046005E859047003020CEED0
:100BB900120CB9580460F6EC4860F2EC7004FDFEC2
:100BC900FF22C860DB2481C85009C398600250061F
:100BD900020CF59850CAF582E9294B4A7005AB8297
:100BE900020CE475F0007C1A7880C3EF9BEE9AED55
:100BF90099400DC3EF9BFFEE9AFEED99FDE842F097
:100C0900DC23ACF0D0E0FFD0E0FED0E0FDAB8220E9
:100C1900E7101BEB60BAEC2CFCEF33FFEE33FEED73
:100C290033FD020CD0E803F830E705C0F075F00099
:100C3900EF2FFFEE33FEED33FD40B830E7C280AA57
:100C49003F8000004120000042C80000447A0000B3
:100C5900461C400047C35000497424004B18968035
:100C69004CBEBC205A0E1BCA6753C21C749DC5AE2C
:100C7900FB60065407601C2323120CA7EB54386051
:100C890009120C93120CA2120AA3ECF8EDF9EEFA70
:100C9900EFCB22EB120CA280F1543803241C900CE8
:100CA90049FE93FC0EEE93FD0EEE930ECE93FF22BA
:100CB900E9D2E7C933E833F892D5EDD2E7CD33EC81
:070CC90033FC5002B2D522FA
:100CD000EC30E7100FBF000C0EBE00080DBD000485
:100CE0000BEB6014A2D5EB13FCED92E7FD2274FF31
:100CF000FCFDFEFF22E480F8A2D574FF13FC7D808A
:030D0000E480EF9D
:100D0300BB010689828A83E0225002E722BBFE02EE
:090D1300E32289828A83E4932221
:100D1C00BB010CE58229F582E5833AF583E022508C
:100D2C0006E92582F8E622BBFE06E92582F8E222D6
:0D0D3C00E58229F582E5833AF583E49322F0
:100D4900BB010689828A83F0225002F722BBFE0189
:020D5900F32283
:100D5B00E493FC740193FD740293FE740393FF22DE
:100D6B00FAE6FB0808E6F925F0F618E6CA3AF62289
:100D7B00D083D082F8E4937012740193700DA3A307
:100D8B0093F8740193F5828883E47374029368601B
:060D9B00EFA3A3A380DF1B
:10173300EFB40A07740D12173E740A309811A89972
:10174300B8130CC2983098FDA899C298B811F63016
:0717530099FDC299F59922EE
:00000001FF
